:060000000A128A11E52F2F
:1000120083120313861006113430FA00F130F9000E
:10002200F90B1128FA0B1128162803300A128A1527
:100032009F220A128A110D30FA00FB30F900F90BE7
:100042002028FA0B2028252803300A128A159F221D
:100052000A128A116330F900F90B2D283028033077
:100062000A128A159F220A128A1102300A128A156E
:100072009F220A128A1128300A168A11DD270A12D3
:100082008A110C300A168A11DD270A128A110630EB
:100092000A168A11DD270A128A110A168A11702796
:1000A2000A128A11080083120313C301C401300823
:1000B2002F042E042D04031D5F286028AC2831086C
:1000C2008400303083138000310A84008001E428E8
:1000D2004308333E84000030F3000030F200003069
:1000E200F1000A30F0003008F7002F08F6002E0861
:1000F200F5002D08F4000A128A156B230A128A11E0
:100102007008303E83138000013083120313C3074B
:100112000318C40A0030C4070030A3000030A20054
:100122000030A1000A30A0003008A7002F08A60066
:100132002E08A5002D08A4000A128A157F240A128F
:100142008A11831203132308B0002208AF0021088A
:10015200AE002008AD0030082F042E042D04031D2C
:10016200B328B4286928C501C6014308FF3EC70069
:1001720044080318013EFF3EC800C81FC128C22818
:10018200C328DD284708333E840083130008FF009C
:1001920045083107B200320884007F088000013030
:1001A200C5070318C60A0030C607FF30C707031881
:1001B200C80AFF30C807BE2845083107B200320816
:1001C20084008313800108000A128A15D2250A12BC
:1001D2008A11831203133008DD002F08DC002E0879
:1001E200DB002D08DA000030A3000030A20000304E
:1001F200A1006430A0005D08F3005C08F2005B0817
:10020200F1005A08F0000030F7000030F60000302C
:10021200F5001230F4000A128A1525230A128A11F7
:10022200730883120313A7007208A6007108A500C1
:100232007008A4000A128A157F240A128A118312F6
:10024200031320087C3EDE0021080318013EFC3E19
:10025200DF00DF1F2D292E293329DE09DF09DE0AFF
:100262000319DF0A0A30F6000030F7005F08F900D0
:100272005E08F8000A128A1518240A128A117708F1
:1002820083120313CC007608CB004C08803AFF009F
:1002920081307F02031D4F2968304B02031C522913
:1002A200532968296830F0000130F10083120313EA
:1002B2004C08F3004B08F2000A128A15BF230A12F7
:1002C2008A11710883120313CC007008CB008312C9
:1002D20003134C08803AFF0080307F02031D73290C
:1002E200B5304B02031C76297729852968308312A1
:1002F2000313C1000130C2004B084102CB004C087D
:10030200031C4C0A4202CC000A30F0000030F1001B
:10031200831203135F08F3005E08F2000A128A15C3
:10032200BF230A128A11710883120313C8007008CE
:10033200C7004C08C2004B08C1000310C10DC20D1A
:1003420088304207FF001230410784000318FF0A79
:100352000A128A1500200A128A11C9000A128A1585
:1003620000200A128A11CA004A08C6004908C500BC
:10037200470848040319BE29BF29112A4C08803AAC
:10038200FF0080307F02031DC829B4304B020318DE
:10039200CB29CC29112A831203134C08C2004B0823
:1003A200C1000310C10DC20D88304207FF00143096
:1003B200410784000318FF0A0A128A1500200A1254
:1003C2008A11C3000A128A1500200A128A11C40077
:1003D2000A30F6000030F70049084302F0004A08EC
:1003E200031C4A0A4402F1004808F3004708F200DD
:1003F2000A128A152A220A128A117108F900700853
:10040200F8000A128A1518240A128A118312031399
:1004120049087607C5004A0803184A0A7707C60042
:1004220083120313460883160313EB00831203138C
:10043200450883160313EA000A168A1162270A1274
:100442008A11710883160313E9007008E800683006
:1004520083120313C200E330C100C10B2E2AC20B68
:100462002E2A332A0A168A1162270A128A11710861
:1004720083160313E7007008E600080083120313D3
:10048200CE01CF01BE01BF01A11F482A492A522A2B
:100492000130BE000030BF00A009A109A00A031963
:1004A200A10A2308F7002208F6002108F900200813
:1004B200F8000A128A1518240A128A117708831280
:1004C2000313CD007608CC002308F1002208F000C7
:1004D2002108F3002008F2000A128A15BF230A122B
:1004E2008A11710883120313C1007008C0004C08FE
:1004F2004D04031D7D2A7E2AB82A3030A600013021
:10050200CE070318CF0A0030CF07D42A8312031371
:100512004E08263E84000A30F0000030F1004D08FB
:10052200F3004C08F2000A128A15BF230A128A113C
:100532007008303E83138000013083120313CE070C
:100542000318CF0A0030CF070A30F6000030F70058
:100552004D08F9004C08F8000A128A1518240A12EC
:100562008A11770883120313CD007608CC004D0858
:10057200803AFF0080307F02031DC12A01304C0205
:10058200031CC42AC52AD42A831203134F08803AB3
:10059200FF0080307F02031DD02A0C304E02031C64
:1005A200D32AD42A872A83120313D001D1013E0809
:1005B2003F040319DD2ADE2AE92A240884002D30AB
:1005C200831380000130D0070318D10A0030D1070D
:1005D2004E08FF3EC8004F080318013EFF3EC90007
:1005E200C91FF42AF52AF62A102B4808263E840051
:1005F20083130008FF0050082407A5002508840083
:100602007F0880000130D0070318D10A0030D107DB
:10061200FF30C8070318C90AFF30C907F12A2308A7
:10062200803AFF0080307F02031D192B0230220224
:10063200031C1C2B1D2BC72B8312031350082407EA
:10064200A500250884002E30831380000130D007D6
:100652000318D10A0030D107C201C3012308C50023
:100662002208C4004F2B013083120313C207031860
:10067200C30A0030C3070A30F6000030F70045080D
:10068200F9004408F8000A128A1518240A128A117D
:10069200770883120313C5007608C4004508803A20
:1006A200FF0080307F02031D582B023044020318E2
:1006B2005B2B5C2B342B831203134208FF3ECA00D0
:1006C20043080318013EFF3ECB00CB1F692B6A2B68
:1006D2006B2B9B2B4A08363E84000A30F000003018
:1006E200F1004108F3004008F2000A128A15BF2304
:1006F2000A128A117008303E831380000A30F60015
:100702000030F700831203134108F9004008F80093
:100712000A128A1518240A128A11770883120313FF
:10072200C1007608C000FF30CA070318CB0AFF30A9
:10073200CB07662BC601C701B92B831203134608E8
:10074200363E840083130008FF0050082407A500EA
:10075200250884007F0880000130D0070318D10AE1
:100762000030D1070130C6070318C70A0030C70797
:100772004708803AA5004308803A2502031DC32B8F
:1007820042084602031CC62BC72B9E2B831203135F
:1007920050082407A500250884008313800108005F
:1007A200013083160313860088010130850083120D
:1007B2000313860188018230831603139F004130A0
:1007C200831203139F0090010A128A1109200A1250
:1007D2008A110A168A1170270A128A11F701F70A7A
:1007E20001300A168A1180270A128A11DF30F600B8
:1007F2008930F7000A128A154F220A128A11F7016C
:10080200F70A03300A168A1180270A128A11F13078
:10081200F6008930F7000A128A154F220A128A114D
:10082200063083120313D8001330D700AD30D60040
:10083200D60B192CD70B192CD80B192C0A168A1186
:1008420070270A128A1183160313EE016E080A1228
:100852008A1575220A128A110A128A11E5200A12D1
:100862008A1100308316031369020A3003196802E1
:1008720003183C2C3D2C782C003067020A300319F7
:1008820066020318452C462C782C0A168A1170270A
:100892000A128A110A168A11BC270A128A11642CBA
:1008A200063083120313D8001330D700AD30D600C0
:1008B200D60B592CD70B592CD80B592C0A128A114A
:1008C200E5200A128A1100308316031369020A30E6
:1008D2000319680203186E2C6F2C782C0030670203
:1008E2000A3003196602031C772C782C512CEE0176
:1008F2006E080A128A1575220A128A110A128A11C0
:10090200E5200A128A11033083120313D80008303B
:10091200D7007630D600D60B8C2CD70B8C2CD80B6C
:100922008C2C00000A168A1170270A128A110A12E8
:100932008A15BE260A128A11831603136D08031D37
:10094200A32CA42CC42CEB1FA72CA82CC02C6A0906
:1009520083120313D600831603136B098312031346
:10096200D700D60A0319D70A560883160313E400E0
:1009720083120313570883160313E500C42C6B0874
:10098200E5006A08E400EB1FC72CC82CE02C6A09BA
:1009920083120313D600831603136B098312031306
:1009A200D700D60A0319D70A560883160313E000A4
:1009B20083120313570883160313E100582D6B08A3
:1009C200E1006A08E000582D0130FF007F0883161D
:1009D2000313EE0710306E02031CF02CF12CF32CE3
:1009E200EE01652DF70102300A168A1180270A12DC
:1009F2008A11CC30F6008930F7000A128A154F228C
:100A02000A128A11831603136E080A128A157522B6
:100A12000A128A11023083120313D8008630D700DB
:100A22009830D600D60B132DD70B132DD80B132DC0
:100A320000000A128A11E5200A128A110430831278
:100A42000313D8000C30D7003330D600D60B272D35
:100A5200D70B272DD80B272D0A128A15BE260A126C
:100A62008A11831203135F08803AFF0080307F02ED
:100A7200031D3D2DC8305E02031C402D412D652D06
:100A8200831603136108803AFF0083307F02031D3F
:100A92004C2D84306002031C4F2D502D512D652D9D
:100AA20083160313EB1F562D572DE02CC82C61081B
:100AB200803AFF0083307F02031D612D8430600283
:100AC200031C642D652DE52C83160313EB1F6A2D81
:100AD2006B2D832D6A0983120313D6008316031329
:100AE2006B0983120313D700D60A0319D70A5608D3
:100AF20083160313E20083120313570883160313AA
:100B0200E300872D6B08E3006A08E20064086504CD
:100B120003198C2D8D2D7C2F63086502031D932DE7
:100B2200620864020318962D972D7C2F6408C80072
:100B32006508C900CA01CB016208CC006308CD0078
:100B4200CE01CF014B08F3004A08F2004908F10038
:100B52004808F0004B08F7004A08F6004908F5007B
:100B62004808F4000A128A1525230A128A1173080A
:100B720083160313D3007208D2007108D1007008E3
:100B8200D0004F08F3004E08F2004D08F1004C0867
:100B9200F0004F08F7004E08F6004D08F5004C082B
:100BA200F4000A128A1525230A128A117308831681
:100BB2000313D7007208D6007108D5007008D4005C
:100BC2000030DF000030DE000030DD000030DC00ED
:100BD2000030DB000030DA000030D9000030D800ED
:100BE2005308031D032E0F305202031D002E423004
:100BF2005102031D002E40305002031D002E031827
:100C0200032E042E5B2E403083120313D600423093
:100C1200D7000F30D8000030D900831603135008D4
:100C220083120313D602831603135108031C510FB8
:100C32001B2E1E2E83120313D70283160313520890
:100C4200031C520F252E282E83120313D80283165B
:100C520003135308031C530F2F2E322E8312031338
:100C6200D90283160313831203135908A3005808E9
:100C7200A2005708A1005608A0000A128A15E7240C
:100C82000A128A1183120313230883160313DF0047
:100C920083120313220883160313DE008312031345
:100CA200210883160313DD00831203132008831621
:100CB2000313DC00831603135708031D6F2E0F3036
:100CC2005602031D6C2E42305502031D6C2E40301D
:100CD2005402031D6C2E03186F2E702EC72E403047
:100CE20083120313D6004230D7000F30D8000030F1
:100CF200D90083160313540883120313D6028316F2
:100D020003135508031C550F872E8A2E83120313D3
:100D1200D702831603135608031C560F912E942EE6
:100D220083120313D802831603135708031C570FA9
:100D32009B2E9E2E83120313D90283160313831252
:100D420003135908A3005808A2005708A100560827
:100D5200A0000A128A15E7240A128A1183120313C9
:100D6200230883160313DB0083120313220883165E
:100D72000313DA0083120313210883160313D90025
:100D820083120313200883160313D8008316031358
:100D92005F085E045D045C040319D02ED12E7C2F03
:100DA2005B085F02031DDF2E5A085E02031DDF2E61
:100DB20059085D02031DDF2E58085C02031CE22E57
:100DC200E32E7C2F5C0883120313D60083160313D1
:100DD2005D0883120313D700831603135E08831280
:100DE2000313D800831603135F0883120313D90079
:100DF20083160313580883120313D60283160313B0
:100E02005908031C590F062F092F83120313D70207
:100E1200831603135A08031C5A0F102F132F831221
:100E22000313D802831603135B08031C5B0F1A2FEC
:100E32001D2F83120313D902831603138312031384
:100E4200590883160313C700831203135808831625
:100E52000313C60083120313570883160313C50036
:100E620083120313560883160313C4005F08831208
:100E72000313A300831603135E0883120313A20055
:100E8200831603135D0883120313A1008316031351
:100E92005C0883120313A000831603134708F300B0
:100EA2004608F2004508F1004408F0000030F7005F
:100EB2000030F6000030F5006430F4000A128A15A2
:100EC20025230A128A11730883120313A7007208DA
:100ED200A6007108A5007008A4000A128A157F24D2
:100EE2000A128A1183120313200883160313EC00DB
:100EF200ED01ED0A7E2FEC01ED010A128A15BE26E4
:100F02000A128A1183160313EB1F882F892FA12F30
:100F12006A0983120313D600831603136B09831223
:100F22000313D700D60A0319D70A560883160313E8
:100F3200E00083120313570883160313E100C62F40
:100F42006B08E1006A08E000C62F09308312031320
:100F5200D8001E30D700E330D600D60BAE2FD70B09
:100F6200AE2FD80BAE2FB52F0A128A11E5200A1226
:100F72008A110A128A15BE260A128A1183160313CF
:100F8200EB1FC42FC52FA12F892F6108803AFF00C4
:100F920083307F02031DCF2F843060020318D22FCB
:100FA200D32FA62F063083120313D8001330D70095
:100FB200AD30D600D60BDB2FD70BDB2FD80BDB2FB8
:100FC200242C0A128A11002883120313DA01DB018E
:100FD200DC01DD01DE01DF0183160313E201E3011F
:100FE200E401E501E601E701E801E901EA01EB01BB
:100FF200EC01ED01EE0183010A128A11D12BFF1BD4
:101002000A2883137F1883170008840A0319FF0A2A
:1010120008007F087F398A000408840A0319FF0A3E
:101022008200E8340334E8340334E7340334E73429
:101032000334E6340334E4340334E3340334E13474
:101042000334DE340334DC340334D9340334D63489
:101052000334D2340334CE340334CA340334C634B2
:101062000334C1340334BC340334B7340334B234EC
:101072000334AC340334A63403349F340334993438
:101082000334923403348A340334833403347B3498
:101092000334733403346B34033462340334593409
:1010A200033450340334473403343D34033433348B
:1010B2000334293403341F3403341434033409341D
:1010C2000334FE340234F3340234E7340234DB34C2
:1010D2000234CF340234C3340234B7340234AA3473
:1010E20002349D3402349034023483340234753431
:1010F2000234683402345A3402344C3402343E34FA
:1011020002342F34023421340234123402340334D0
:101112000234F4340134E5340134D5340134C634B4
:101122000134B6340134A73401349734013487349E
:101132000134773401346634013456340134463490
:101142000134353401342434013414340134033489
:101152000134F2340034E1340034D0340034BF348A
:101162000034AE3400349C3400348B3400347A348E
:101172000034693400345734003446340034343493
:101182000034233400341134003400340034EF349A
:10119200FF34DD34FF34CC34FF34BA34FF34A934A5
:1011A200FF349734FF348634FF347534FF346434AB
:1011B200FF345234FF344134FF343034FF341F34AF
:1011C200FF340E34FF34FD34FE34EC34FE34DC34B0
:1011D200FE34CB34FE34BA34FE34AA34FE349A34AC
:1011E200FE348934FE347934FE346934FE345934A1
:1011F200FE344A34FE343A34FE342B34FE341B348B
:10120200FE340C34FE34FD34FD34EE34FD34DF3470
:10121200FD34D134FD34C234FD34B434FD34A6344B
:10122200FD349834FD348B34FD347D34FD34703418
:10123200FD346334FD345634FD344934FD343D34D9
:10124200FD343134FD342534FD341934FD340D348C
:10125200FD340234FD34F734FC34EC34FC34E13434
:10126200FC34D734FC34CD34FC34C334FC34B934CC
:10127200FC34B034FC34A734FC349E34FC34953452
:10128200FC348D34FC348534FC347D34FC347634C7
:10129200FC346E34FC346734FC346134FC345A342C
:1012A200FC345434FC344E34FC344934FC3444347D
:1012B200FC343F34FC343A34FC343634FC343234BB
:1012C200FC342E34FC342A34FC342734FC342434E9
:1012D200FC342234FC341F34FC341D34FC341C3402
:1012E200FC341A34FC341934FC341934FC34183408
:1012F200FC341834FC348034C0349434D434533441
:10130200743461347434753473343A3420344C3464
:101312004F3457342034503446342034203420346F
:101322002034003453347434613474347534733477
:101332003A3420344F345034543449344D344134E7
:101342004C3420342034203400344E344F34203492
:101352004C344F3441344434203443344F344E34CB
:101362004E34453443345434453444342034003408
:10137200573461346934743469346E3467342034D8
:1013820066346F34723420346C346F3461346434B4
:101392002E342E340034533474346134743475343E
:1013A20073343A34203443344F3452345234453453
:1013B2004334543449344E344734003420344934AD
:1013C2006E34743465346C346C3469346734653427
:1013D2006E34743420345034463443342034003470
:1013E20020345334543441345234543449344E3416
:1013F200473420342E342E342E34203400344334F7
:101402002034423461346E346B343A342034003444
:101412007C342034513453346134763465343A3474
:10142200003441346E3467346C3465343A342034D9
:101432000034203428344C34613467342934003485
:0E144200503446343A3420340034253400341B
:10145400F401F501701C2F2A302A362A7208F40789
:101464000318F50A7308F50701300310F20DF30DA4
:10147400FF3E031D372A01300310F10CF00CFF3E30
:10148400031D3E2A70087104031D492A4A2A2C2A86
:101494007508F1007408F0000800642A7708FF005A
:1014A400760884000A128A1500200A128A150A1680
:1014B4008A119E270A128A150130F6070318F70AC3
:1014C4000030F707770883120313FF0076088400BF
:1014D4000A128A1500200A128A15003A031D732A7B
:1014E400742A502A0800F0007018792A7D2A831281
:1014F40003130816802A831203130812F018832A90
:10150400872A8312031388168A2A831203138812E4
:1015140070198D2A912A831203130817942A8312AF
:1015240003130813F019972A9B2A831203138817AD
:101534009E2A8312031388130800F30001307305F5
:10154400F1008312031308087106FE39710688003E
:101554007308F1000310710C0139F200F20D080850
:101564007206FD39720688007308F1000230031018
:10157400F10CFF3E031DB92A71080139F200F20D86
:10158400F20D08087206FB39720688007308F10030
:1015940003300310F10CFF3E031DCB2A71080139FF
:1015A400F200F20DF20DF20D08087206F739720618
:1015B40088000A168A1155270A128A150800F401B0
:1015C400F501700871040319E82AE92A202BF601B1
:1015D400F60AF72A01300310F00DF10DFF3E031D4A
:1015E400ED2A0130FF007F08F607F11FFA2AFB2AD3
:1015F400EC2A01300310F40DF50DFF3E031DFC2A07
:1016040071087302031D082B70087202031C0B2B54
:101614000C2B132B7008F2027108031CF303F30262
:10162400741401300310F10CF00CFF3E031D142B55
:101634000130F602031D1F2B202BFB2A7508F10035
:101644007408F00008000030FC000030FB0000309B
:10165400FA000030F900701C302B312B482B740831
:10166400F907750803110318013E03193A2BFA0709
:10167400760803110318013E0319412BFB07770871
:1016840003110318013E0319482BFC070130F8002D
:101694000310F40DF50DF60DF70DF80B4A2B013080
:1016A4000310F30CF20CF10CF00CFF3E031D522B53
:1016B4007308720471047004031D612B622B2D2BBB
:1016C4007C08F3007B08F2007A08F1007908F00046
:1016D400080073087204710470040319722B732BCD
:1016E400B62BF901F90A832B0130F8000310F00D31
:1016F400F10DF20DF30DF80B782B0130FF007F088C
:10170400F907F31F862B872B762B73087702031DAB
:10171400952B72087602031D952B71087502031D23
:10172400952B70087402031C982B992BA72B700817
:10173400F4027108031C710FF5027208031C720F86
:10174400F6027308031C730FF70201300310F30C45
:10175400F20CF10CF00CFF3E031DA82B0130F90232
:10176400031DB52BB62B872B7708F3007608F20000
:101774007508F1007408F0000800F501F31FC32B8D
:10178400C42BCB2BF209F309F20A0319F30AF5016E
:10179400F50AF11FCE2BCF2BD42BF009F109F00A57
:1017A4000319F10A700871040319D92BDA2B092CD7
:1017B400F401F40AE82B01300310F00DF10DFF3EA3
:1017C400031DDE2B0130FF007F08F407F11FEB2B14
:1017D400EC2BDD2B71087302031DF22B70087202CF
:1017E400031CF52BF62BFC2B7008F2027108031C6A
:1017F400F303F30201300310F10CF00CFF3E031D60
:10180400FD2B0130F402031D082C092CEC2B750868
:1018140003190D2C0E2C132CF209F309F20A0319E7
:10182400F30A7308F1007208F0000800FB01F71FC7
:101834001C2C1D2C242CF609F709F60A0319F70AA7
:10184400FB01FB0AF91F272C282C312CF809F90974
:10185400F80A0319F90A0130FF007F08FB06FC01AE
:10186400FD01760877040319382C392C702CFA0101
:10187400FA0A472C01300310F60DF70DFF3E031D45
:101884003D2C0130FF007F08FA07F71F4A2C4B2C30
:101894003C2C01300310FC0DFD0DFF3E031D4C2CB0
:1018A40077087902031D582C76087802031C5B2CF8
:1018B4005C2C632C7608F8027708031CF903F90200
:1018C4007C1401300310F70CF60CFF3E031D642C4E
:1018D4000130FA02031D6F2C702C4B2C7B0803196A
:1018E400742C752C7A2CFC09FD09FC0A0319FD0AD9
:1018F4007D08F7007C08F60008000030831203130B
:10190400AB000030AA000030A9000030A800230872
:101914002204210420040319902C912CDE2CAC0108
:10192400AC0AA12C0130FD000310A00DA10DA20DE5
:10193400A30DFD0B962C0130FF007F08AC07A31FFD
:10194400A42CA52C942C0130FD000310A80DA90D86
:10195400AA0DAB0DFD0BA72C23082702031DBC2CDD
:1019640022082602031DBC2C21082502031DBC2CC1
:1019740020082402031CBF2CC02CCF2C2008A40256
:101984002108031C210FA5022208031C220FA60212
:101994002308031C230FA702281401300310A30CEF
:1019A400A20CA10CA00CFF3E031DD02C0130AC02F4
:1019B400031DDD2CDE2CA52C2B08A3002A08A20075
:1019C4002908A1002808A00008000030831203138E
:1019D400AF000030AE000030AD000030AC0000308D
:1019E400B3000030B200FF30B100FF30B000B72DBB
:1019F4002C083007A4000030031801302D07A6017D
:101A04000318A60A3107A5000318A60A2E082607FC
:101A1400A7010318A70A3207A6000318A70A2F086C
:101A240027073307A70001300310A70CA60CA50C49
:101A3400A40CFF3E031D162D2708B7002608B60088
:101A44002508B5002408B4003708F3003608F2006E
:101A54003508F1003408F0003708F7003608F600BE
:101A64003508F5003408F4000A128A1525230A12F1
:101A74008A15730883120313AB007208AA00710855
:101A8400A9007008A80023082B06031D532D220863
:101A94002A06031D532D21082906031D532D200852
:101AA4002806031D562D572D602D3708A300360830
:101AB400A2003508A1003408A000D12D23082B0270
:101AC400031D6E2D22082A02031D6E2D21082902F2
:101AD400031D6E2D200828020318712D722D952DDB
:101AE4000130A4000030A5000030A6000030A7009B
:101AF4003408A40735080318350F812D822DA50756
:101B040036080318360F872D882DA60737080318C3
:101B1400370AA7072708AF002608AE002508AD003E
:101B24002408AC00B72DFF30A400FF30A500FF301F
:101B3400A600FF30A7003408A40735080318350FA2
:101B4400A42DA52DA50736080318360FAA2DAB2DF5
:101B5400A60737080318370AA7072708B30026087B
:101B6400B2002508B1002408B0002F083302031D79
:101B7400C52D2E083202031DC52D2D083102031D6B
:101B8400C52D2C0830020318C82DC92DFA2C330892
:101B9400A3003208A2003108A1003008A000080008
:101BA400003083120313C0000030BF00EA30BE00CF
:101BB4006030BD00061CDF2DE02D042E0130B10085
:101BC4000030B2000030B3000030B4003108BD0270
:101BD4003208031C320FEF2DF02DBE023308031C14
:101BE400330FF52DF62DBF023408031C340FFB2DE3
:101BF400FC2DC00240083F043E043D04031D032E97
:101C0400042EDC2D0030C0000030BF00EA30BE00DE
:101C14006030BD0006180F2E102E342E0130B10096
:101C24000030B2000030B3000030B4003108BD020F
:101C34003208031C320F1F2E202EBE023308031C51
:101C4400330F252E262EBF023408031C340F2B2EEF
:101C54002C2EC00240083F043E043D04031D332ED5
:101C6400342E0C2E8F018E0110140030C000003071
:101C7400BF00FF30BE00FF30BD00061C422E432EC5
:101C8400672E0130B1000030B2000030B3000030E4
:101C9400B4003108BD023208031C320F522E532EF9
:101CA400BE023308031C330F582E592EBF023408CA
:101CB400031C340F5E2E5F2EC00240083F043E0416
:101CC4003D04031D662E672E3F2E10100E08B10032
:101CD400B201B301B4010F08B500B601B701B801F0
:101CE40008300310B50DB60DB70DB80DFF3E031D3A
:101CF400732E31083504B90032083604BA003308AB
:101D04003704BB0034083804BC000030A3000030A2
:101D1400A2000030A1000A30A0003C08F3003B08F8
:101D2400F2003A08F1003908F0000030F700003002
:101D3400F6000030F5000530F4000A128A15252358
:101D44000A128A15730883120313A7007208A600E7
:101D54007108A5007008A4000A128A157F240A12CB
:101D64008A15831203132308B0002208AF00210848
:101D7400AE002008AD000800F70100300A168A11F1
:101D840080270A128A1583160313EB1FCA2ECB2E43
:101D9400E32E6A0983120313D200831603136B091B
:101DA40083120313D300D20A0319D30A52088316E9
:101DB4000313C20083120313530883160313C300CF
:101DC400E72E6B08C3006A08C2000A30F000003036
:101DD400F1004208053EF20043080318013E003EAC
:101DE400F3000A128A15E1220A128A157108831671
:101DF4000313C1007008C000410883120313A1003B
:101E040083160313400883120313A0006430A20056
:101E14000030A300A030A4000A128A113F220A1243
:101E24008A152130F6008A30F7000A128A154F22EB
:101E34000A128A15A030F6000030F7000A128A153B
:101E44004F220A128A151A30F6008A30F7000A1255
:101E54008A154F220A128A15F70101300A168A11CF
:101E640080270A128A151230F6008A30F7000A1207
:101E74008A154F220A128A15831203135F08A100E0
:101E84005E08A0000A30A2000030A300A030A40025
:101E94000A128A113F220A128A15A030F600003075
:101EA400F7000A128A154F220A128A15DF300A1621
:101EB4008A119E270A128A159130F6008930F7009C
:101EC4000A128A154F220A128A15F70102300A16DD
:101ED4008A1180270A128A150330831603134302DA
:101EE400843003194202031C782F792F832F9330F7
:101EF400F6008930F7000A128A154F220A128A1551
:101F04009B2F6D080319872F882F922FCC30F60052
:101F14008930F7000A128A154F220A128A159B2F5C
:101F24008030F6008930F7000A128A154F220A120F
:101F34008A15F70103300A168A1180270A128A15B6
:101F44000030F6008A30F7000A128A154F220A126E
:101F54008A15831603136E0883120313D200D30168
:101F6400D401D5015508B0005408AF005308AE00A1
:101F74005208AD00B430B1000A128A1154200A127A
:101F84008A15B430F6000030F7000A128A154F2281
:101F94000A128A150930F6008A30F7000A128A15E7
:101FA4004F220A128A15831603136C088312031333
:101FB400D200D301D401D5015508B0005408AF00B4
:101FC4005308AE005208AD00BA30B1000A128A11AB
:101FD40054200A128A15BA30F6000030F7000A12AB
:101FE4008A154F220A128A152630F6008A30F70025
:0C1FF4000A128A154F220A128A150800F2
:102EAA00831203130615592F5A2F8312031306117F
:102EBA002130F000F00B5F2F0800831203131F1557
:102ECA001F19682F692F652F1E08F1008316031337
:102EDA001E08F000080001300A168A11DD270A16BA
:102EEA008A110630F8003030F700F70B7A2FF80B0A
:102EFA007A2F00000800F80004307802031C862F9D
:102F0A00872F892F0330F80078087C3E84008930A7
:102F1A000318013E83120313FF000A128A150020C8
:102F2A000A168A1177070A168A11DD270A168A11E4
:102F3A000800F5008312031386147508F4000430A0
:102F4A000310F40CFF3E031DA52F74080A128A15FC
:102F5A009F220A168A1175080F390A128A159F22AA
:102F6A000A168A112130F400F40BB92F0800F70170
:102F7A0001300A168A1180270A168A11A630F6002D
:102F8A008930F7000A128A154F220A168A11F701A8
:102F9A0002300A168A1180270A168A11B930F600F9
:102FAA008930F7000A128A154F220A168A11080078
:102FBA00F6008312031386107608F4000430031017
:102FCA00F40CFF3E031DE42F74080A128A159F228F
:102FDA000A168A1176080F390A128A159F220A16CA
:102FEA008A110630F5003030F400F40BFA2FF50B95
:062FFA00FA2F00000800A0
:02400E00723FFF
:00000001FF
